:020000040010EA
:1000000013010040930200001303400063F66200F6
:1000100023A002009102DDBF9702000093820244F8
:1000200013030000930300006379730003AE020022
:100030002320C30191021103C5BFBD2801A0B7054C
:100040000002A1057147A5487158B357E50013F6A2
:10005000F70071179306760363E4C800930606035E
:1000600094C1E31407FF8280411122C406C683476E
:1000700005002E8489CB37070002210705051CC324
:1000800083470500E5FF48445D3F08444D3F484035
:100090007D3708406D37B7071000B7060002938719
:1000A000873DA1063547850798C203C7070065FF4E
:1000B000B24022444101828079713707000206D69E
:1000C00022D41306001BB707100050C39306870005
:1000D000938787373547850798C203C7070065FFB1
:1000E000B707100037051000938587431305853F38
:1000F00013848743953F37051000930504011305CA
:1001000085409D3737F6DDCCB70600031306F6EFC2
:1001100037B7998890C61307B7AB37665544D8C62A
:10012000130676673727110090CA1307372337164F
:100130000D0CD8CA1306F6E03717090890CE13073E
:10014000B7A037060504D8CE13067660416790D273
:1001500013073720D8D2B7070003054637470F00EB
:1001600090C3130707249386470011A025C79C421C
:100170007D17858BE5DF37060003005626D24AD06F
:100180004ECE8329C60203290603445A37051000C0
:100190008A851305854222C04EC24AC426C6E93567
:1001A000B7C7B4709387A755630AF404B707100064
:1001B000B70600029387873A13075004A106850704
:1001C00098C203C7070065FFB7075EA3890723200E
:1001D000F00001A0B7071000B70600029387873927
:1001E000A10613075004850798C203C7070065FFDF
:1001F000B7075EA391072320F00001A0B7B7CDD8C1
:1002000093870778E394F9FAB7077B6A93870743E4
:10021000E31EF9F8B7E7C4699387870DE398F4F80C
:10022000B7071000B70600029387473BA1061307E4
:100230005004850798C203C7070065FF37C6B4702E
:10024000B70600031306A65537B7CDD890C61307D7
:10025000077837067B6AD8C61306064337E7C469B2
:1002600090CA1307870D37160D0CD8CA1306F6E08F
:100270003717090890CE1307B7A037060504D8CE64
:1002800013067660416790D213073720D8D2B7079C
:1002900000030D4637470F0090C3130707249386CA
:1002A000470011A025C39C427D17858BE5DF3706EB
:1002B000000300568329C60203290603445A370562
:1002C00010008A851305854122C04EC24AC426C645
:1002D000613BB7F7DDCC9387F7EF6309F404B70709
:1002E0001000B70600029387073DA10611A098C22F
:1002F00003C70700850765FFB7075EA38D072320A7
:10030000F00001A0B7071000B70600029387073C72
:10031000A10613074004850798C203C7070065FFBD
:10032000B7075EA395072320F00001A0B7B799880F
:100330009387B7ABE395F9FAB76755449387776727
:10034000E31FF9F8B727110093873723E399F4F8EF
:10035000B7071000B70600029387C73DA10611A09A
:1003600098C203C70700850765FFB7075EA3850727
:100370002320F00001A000000D0A5069636F52565F
:100380003332204145532D3132382073656C662D50
:10039000746573740D0A0000454E432054494D4561
:1003A0004F55540D0A000000454E43204641494C2C
:1003B0000D0A0000454E4320504153530D0A0000E2
:1003C0004445432054494D454F55540D0A00000003
:1003D000444543204641494C0D0A00004445432012
:1003E000504153530D0A524553554C543A205041F5
:1003F00053530D0A00000000506C61696E746578FB
:100400007420203D200000004B6579202020202012
:100410002020203D200000004465637279707465DF
:100420006420203D20000000436970686572746597
:100430007874203D20000000FFEEDDCCBBAA998837
:1004400077665544332211000F0E0D0C0B0A090874
:08045000070605040302010088
:0400000500100000E7
:00000001FF
